:100000000C9463000C948B000C948B000C948B006C
:100010000C948B000C948B000C948B000C947B1B29
:100020000C948B000C948B000C948B000C948B0024
:100030000C948B000C948B000C948B000C948B0014
:100040000C94D91A0C948B000C94491B0C94231B10
:100050000C948B000C948B000C948B000C948B00F4
:100060000C94471C0C948B00000000002400270017
:100070002A0000000000250028002B0000000000DE
:1000800023002600290004040404040404040202DA
:100090000202020203030303030301020408102007
:1000A0004080010204081020010204081020000012
:1000B0000008000201000003040700000000000027
:1000C0000000621D962411241FBECFEFD8E0DEBFD2
:1000D000CDBF26E0A6E6B4E001C01D92A63EB20761
:1000E000E1F714E0A0E0B1E0E2EEF2E502C0059035
:1000F0000D92A636B107D9F710E0C2E6D0E004C0F1
:100100002197FE010E946C27C136D107C9F70E94D2
:10011000D41D0C9464290C940000AF92BF92CF922E
:10012000DF92EF92FF920F931F93CF93DF937C01A7
:100130006B015A01FC018081918120913E05309133
:100140003F05C1E0D0E08217930708F062C09C0130
:10015000220F331FE0913C05F0913D05E20FF31FA4
:1001600000811181EC01C095D095C170DD272CE98B
:100170003FEF80FF02C024E630E02A0D3B1DC9019D
:1001800063E470E00E9422270617170754F0C901A4
:1001900068E270E00E9422276F5F7F4F601771074F
:1001A0006CF52A0D3B1DC90163E470E00E94222713
:1001B0000617170754F0C90168E270E00E94222771
:1001C0006F5F7F4F6017710784F52A0D3B1DC901D2
:1001D00063E470E00E9422270617170764F0C90144
:1001E00068E270E00E9422276F5F7F4F23E030E0DB
:1001F000601771072CF4CFEFDFEF0BC021E030E088
:10020000F601808191810196821793078CF4918386
:100210008083CE01DF91CF911F910F91FF90EF90DE
:10022000DF90CF90BF90AF90089522E030E0E8CF0C
:1002300011821082F701808191810196E8CFFC0143
:10024000538D448D252F30E0842F90E0821B930B3B
:10025000541710F0CF96089501970895FC01918DE1
:10026000828D981761F0A28DAE0FBF2FB11D5D96E4
:100270008C91928D9F5F9F73928F90E008958FEF86
:100280009FEF0895FC01918D828D981731F0828D3A
:10029000E80FF11D858D90E008958FEF9FEF089591
:1002A000FC01918D228D892F90E0805C9F4F821BF5
:1002B00091098F7399270895FC01A48DA80FB92F78
:1002C000B11DA35ABF4F2C91848D90E001968F737E
:1002D0009927848FA689B7892C93A089B1898C919D
:1002E000837080648C93938D848D981306C00288EC
:1002F000F389E02D80818F7D80830895EF92FF92B6
:100300000F931F93CF93DF93EC0181E0888F9B8D38
:100310008C8D98131AC0E889F989808185FF15C0F2
:100320009FB7F894EE89FF896083E889F989808115
:100330008370806480839FBF81E090E0DF91CF91E4
:100340001F910F91FF90EF900895F62E0B8D10E006
:100350000F5F1F4F0F731127E02E8C8D8E110CC075
:100360000FB607FCFACFE889F989808185FFF5CFC0
:10037000CE010E945C01F1CFEB8DEC0FFD2FF11D42
:10038000E35AFF4FF0829FB7F8940B8FEA89FB89FD
:1003900080818062CFCFCF93DF93EC01888D88235B
:1003A000B9F0AA89BB89E889F9898C9185FD03C0D8
:1003B000808186FD0DC00FB607FCF7CF8C9185FFBD
:1003C000F2CF808185FFEDCFCE010E945C01E9CFA5
:1003D000DF91CF91089582E495E00E94500121E0E1
:1003E000892B09F420E0822F089580E090E0892B8A
:1003F00029F00E94EB0181110C94000008958330D4
:1004000081F028F4813099F08230A9F00895873086
:10041000A9F08830C9F08430B1F4809180008F7DDC
:1004200003C0809180008F7780938000089584B509
:100430008F7784BD089584B58F7DFBCF8091B00008
:100440008F778093B00008958091B0008F7DF9CFB1
:10045000CF93DF93282F30E0F901E255FF4F8491CD
:10046000F901E656FF4FD491F901EA57FF4FC491C5
:10047000CC23A1F081110E94FF01EC2FF0E0EE0FE0
:10048000FF1FE458FF4FA591B491EC91ED2381E05B
:1004900090E009F480E0DF91CF91089580E090E052
:1004A000FACF1F93CF93DF93282F30E0F901E25565
:1004B000FF4F8491F901E656FF4FD491F901EA57B5
:1004C000FF4FC491CC23A9F0162F81110E94FF0188
:1004D000EC2FF0E0EE0FFF1FEE58FF4FA591B49107
:1004E0008FB7F894EC91111108C0D095DE23DC93FE
:1004F0008FBFDF91CF911F910895DE2BF8CFCF935F
:10050000DF9390E0FC01E656FF4F24918A579F4FFE
:10051000FC0184918823D1F090E0880F991FFC01A1
:10052000E859FF4FA591B491FC01EE58FF4FC591DA
:10053000D49161110EC09FB7F8948C91E22FE09591
:100540008E238C932881E223E8839FBFDF91CF9194
:1005500008958FB7F894EC91E22BEC938FBFF6CF10
:1005600060E08091C1060E947F0261E08091C00638
:100570000E9451028091C1060E9428020197D1F386
:1005800060E08091C0060C945102CF93DF93C0ECE1
:10059000D6E061E089810E947F0260E089810E944B
:1005A000510261E088810E94510261E089810E94CC
:1005B000510260E08981DF91CF910C947F02CF934B
:1005C000DF93C0ECD6E061E089810E947F0260E0A9
:1005D00088810E94510261E089810E94510261E09C
:1005E00088810E94510260E088810E94510260E08F
:1005F0008981DF91CF910C947F023FB7F89480916D
:100600002C0590912D05A0912E05B0912F0526B5B2
:10061000A89B05C02F3F19F00196A11DB11D3FBF3A
:10062000BA2FA92F982F8827BC01CD01620F711D09
:10063000811D911D42E0660F771F881F991F4A9503
:10064000D1F708958F929F92AF92BF92CF92DF928F
:10065000EF92FF924B015C010E94FD026B017C0155
:100660000E94FD026C197D098E099F09683E734046
:1006700081059105A8F321E0821A9108A108B1082B
:1006800088EEC80E83E0D81EE11CF11C8114910491
:10069000A104B10429F7FF90EF90DF90CF90BF90B5
:1006A000AF909F908F900895AF92BF92CF92DF92BC
:1006B000EF92FF920F931F93CF93DF936C017B0117
:1006C0008B01040F151FEB015E01AE18BF08C017A8
:1006D000D10759F06991D601ED91FC910190F0811B
:1006E000E02DC6010995892B79F7C501DF91CF91DE
:1006F0001F910F91FF90EF90DF90CF90BF90AF9040
:100700000895089520919B04260F3327331F21322B
:100710003105ECF42091BF04FC0190E080E024302E
:1007200069F082E00895A0919B042191AC014558A5
:100730005B4FA40FB52FB11D2C930196861798F32C
:1007400080919B04680F60939B0480E0089581E092
:10075000089508958FEF9FEF08958FEF9FEF08950D
:100760008091740490E09195819591090895CF93BB
:10077000DF93CB01EA01642F0E948203CE01DF9157
:10078000CF910895CF93DF931F92CDB7DEB76983E2
:1007900061E0CE0101960E94820381E090E00F901B
:1007A000DF91CF91089590E080E008950F931F931B
:1007B000CF93DF93082F162FD42FC8E06D2F661F1D
:1007C0006627661F802F0E945102DD0F61E0812F96
:1007D0000E94510260E0812F0E945102C15071F7C6
:1007E000DF91CF911F910F9108951F93CF93DF93C6
:1007F000182FC0ECD6E061E089810E947F0261E0A1
:1008000089810E94510261E088810E94510260E06A
:1008100089810E94510260E088810E945102412F2B
:1008200068818981DF91CF911F910C94D6031F932A
:10083000CF93DF93182FC0ECD6E061E089810E944E
:100840007F02412F68818981DF91CF911F910C94A4
:10085000D603CF93DF939091C906992349F194EE83
:100860009093BC009091BC0097FFFCCF90ED9093CB
:10087000BB0094EC9093BC009091BC0097FFFCCF20
:100880008093BB0084EC8093BC008091BC0087FF08
:10089000FCCF6093BB0084EC8093BC008091BC00D3
:1008A00087FFFCCF84E98093BC00DF91CF9108954E
:1008B000C62FD82F80ED0E94F5030E94B0028D2F25
:1008C0000E9417040E94B0028C2F0E9417040E94FD
:1008D000B002DF91CF910C94C5021F93CF93DF93A9
:1008E00060E08091C1060E947F02C7E0D0E010E086
:1008F00061E08091C0060E9451028091C1060E9471
:10090000280299270C2E01C0880F0A94EAF7182BA9
:1009100060E08091C0060E945102219748F7812F24
:10092000DF91CF911F910895CF939091C90699239C
:1009300009F441C094EE9093BC009091BC0097FFE5
:10094000FCCF90ED9093BB0094EC9093BC00909101
:10095000BC0097FFFCCF8093BB0084EC8093BC006D
:100960008091BC0087FFFCCF84EE8093BC00809117
:10097000BC0087FFFCCF81ED8093BB0084EC8093AB
:10098000BC008091BC0087FFFCCF84EC8093BC004E
:100990008091BC0087FFFCCFC091BB0084E88093AE
:1009A000BC008091BC0087FFFCCF84E98093BC0031
:1009B0008C2FCF910895C82F80ED0E94F5030E94DF
:1009C000B0028C2F0E9417040E94B00281ED0E9499
:1009D000F5030E94B0020E946D04C82F0E94DF023E
:1009E0000E94C502E5CFEF92FF920F931F93CF9322
:1009F000DF93CDB7DEB728970FB6F894DEBF0FBEF2
:100A0000CDBF8091C906882309F49BC084EE8093F2
:100A1000BC008091BC0087FFFCCF80ED8093BB00C1
:100A200084EC8093BC008091BC0087FFFCCF1092C7
:100A3000BB0084EC8093BC008091BC0087FFFCCF9E
:100A400084EE8093BC008091BC0087FFFCCF81EDD9
:100A50008093BB0084EC8093BC008091BC0087FF36
:100A6000FCCFE2ECF6E089EC96E034EC3093BC008D
:100A70002091BC0027FFFCCF2091BB0021938E1753
:100A80009F07A1F784E88093BC008091BC0087FF9A
:100A9000FCCF84E98093BC004091C206842F8295EC
:100AA00087705AE04F70859F400D11243091C30626
:100AB000832F829587703F70859F300D1124609140
:100AC000C406262F2F70862F90E067FF80C065FB3D
:100AD000882780F9FCE08F9F200D1124F091C50636
:100AE0005091C6066091C7068091C806952F9295D1
:100AF00097707AE05F70979F500D1124E62FE29572
:100B0000E7706F70E79F600D1124982F92959F708A
:100B10008F70979F800D112490E08053984F9F8392
:100B20008E83782F8F819F2F28960FB6F894DEBF83
:100B30000FBECDBFDF91CF911F910F91FF90EF902E
:100B4000089580ED0E94F5030E94B00280E00E94AB
:100B500017040E94B00281ED0E94F5030E94B002CA
:100B600072ECE72E76E0F72E10E000E00E946D04B4
:100B7000F70181937F010630110531F161E0809129
:100B8000C1060E947F0260E08091C0060E9451026F
:100B900060E08091C1060E94510261E08091C00630
:100BA0000E94510260E08091C0060E94510260E004
:100BB0008091C1060E947F020F5F1F4F0730110511
:100BC000A9F60E94C50268CF0E94DF02F5CF64E05B
:100BD000959587956A95E1F78370859F200D11247F
:100BE0007DCFCF93DF93EC0160E08E810E945102B4
:100BF00061E08E810E94510260E08E810E9451026C
:100C00008BE891E00197F1F7DF91CF910895CF92B2
:100C1000DF92EF92FF920F931F93CF93DF936C01BC
:100C20007C0187E0E80EF11CD0E0C0E0062F10E068
:100C3000B8010C2E02C0759567950A94E2F76170B1
:100C4000F70181917F010E9451022196C430D105A4
:100C500079F7C601DF91CF911F910F91FF90EF902F
:100C6000DF90CF900C94F105CF92DF92EF92FF923C
:100C70000F931F93CF93DF93EC01F62E642F8C819B
:100C80000E9451028D818F3F19F060E00E94510255
:100C90000F2D10E08F8584FF25C06E0187E0C80E00
:100CA000D11CF12CE12CB8010E2C02C07595679572
:100CB0000A94E2F76170F60181916F010E9451027E
:100CC000FFEFEF1AFF0A88E0E816F10461F7CE01A2
:100CD000DF91CF911F910F91FF90EF90DF90CF9018
:100CE0000C94F105B80184E0759567958A95E1F754
:100CF000CE010E9407066F2DCE01DF91CF911F918B
:100D00000F91FF90EF90DF90CF900C94070640E09A
:100D1000682F8AEC96E00C94340681E00E948706E6
:100D20008BE39FE10197F1F70895CF93DF93823032
:100D300029F49091D90698609093D9068093DD06A6
:100D40001092DE0680E48093DF0680E18093E00667
:100D500080E58093E10661E08091CE060E947F02EB
:100D60008091CF068F3F19F061E00E947F0261E021
:100D70008091D0060E947F02CAECD6E09E012A5CD8
:100D800036408091D90684FD0BC084E090E0219626
:100D90002817390744F461E08E810E947F02EECF6C
:100DA00088E090E0F4CF8BE39DE00197F1F760E0FD
:100DB0008091CE060E94510260E08091D0060E9490
:100DC00051028091CF068F3F19F060E00E945102DE
:100DD0008091D90684FD34C063E08AEC96E00E94DD
:100DE0000706CBE4D6E4CE010197F1F763E08AEC85
:100DF00096E00E9407062197F1F763E08AEC96E0FF
:100E00000E94070683E592E00197F1F762E08AEC21
:100E100096E00E9407068091D90680620E948706AC
:100E200084E08093DA068CE00E9487060E948D069B
:100E300082E08093DB0686E0DF91CF910C948706F9
:100E400080620E9487068BE496E40197F1F7809117
:100E5000D90680620E94870683E592E00197F1F748
:100E60008091D90680620E948706D5CF9091DD06D9
:100E7000691710F06FEF690FE62FF0E0E653F94FB6
:100E80009489890F80680C94870641E00E9434069B
:100E900081E090E00895FB0101900020E9F731978F
:100EA000AF01461B570BDC01ED91FC910280F381F1
:100EB000E02D09948F929F92AF92BF92EF92FF9292
:100EC0000F931F93CF93DF93CDB7DEB7A1970FB6E4
:100ED000F894DEBF0FBECDBF7C01FA01CB0119A291
:100EE000223008F42AE08E010F5D1F4F822E912CD4
:100EF000B12CA12CBF01A50194010E94E925F901A3
:100F0000CA016A300CF5605DD8016E938D01232B08
:100F1000242B252B79F790E080E0109721F0BD017C
:100F2000C7010E944B07A1960FB6F894DEBF0FBE13
:100F3000CDBFDF91CF911F910F91FF90EF90BF90A8
:100F4000AF909F908F900895695CDECFCF92DF9233
:100F5000EF92FF926C01990FEE08FF08F7FE18C0A0
:100F600041E06DE28AEC96E00E9434064427552762
:100F7000BA014C195D096E097F092AE08AEC96E0F6
:100F80000E945A070196FF90EF90DF90CF9008954E
:100F90002AE0B701A6018AEC96E0FF90EF90DF907F
:100FA000CF900C945A070C944B070F931F93CF9339
:100FB000DF938C01EB018091B2069091B30600970C
:100FC00039F02091B4063091B50626173707B8F4EA
:100FD000BE016F5F7F4F0E9497280097E1F09093CA
:100FE000B3068093B206D093B506C093B4062091A1
:100FF000B6063091B706232B11F4FC011082D09372
:10100000B706C093B606B8018091B2069091B306B8
:101010000E945D2914C08091B2069091B30600979A
:1010200011F00E940E281092B3061092B206109290
:10103000B7061092B6061092B5061092B40682EB6F
:1010400096E0DF91CF911F910F9108951F93CF9359
:10105000DF9385ED8093BC008091770490917804B4
:10106000A0917904B0917A040796A11DB11D23E0E7
:10107000B695A795979587952A95D1F72091BC00AD
:1010800024FD03C01092BF0452C0409177045091D8
:1010900078046091790470917A04452B462B472B94
:1010A00069F30097A105B10541F02AE22A95F1F70D
:1010B00000C00197A109B109E1CF80917604C1E098
:1010C000C0937504882399F1D091B8001091BA00AB
:1010D0008091BC008A7B8093BC0060E082E10E942A
:1010E000510260E083E10E9451021092BF04C0935C
:1010F000C1041092C00461E082E10E94510261E0EB
:1011000083E10E9451028091B9008E7F8093B900E3
:101110008091B9008D7F8093B90088E48093B800F6
:1011200085E48093BC001093BA00D093B800DF919F
:10113000CF911F9108950C94CB258091ED0490914F
:10114000EE040197C1F46091EB048BE090E00E9403
:101150009B086091E9048CE090E00E949B086091FC
:10116000E7048DE090E00E949B086091E5048EE02A
:1011700090E00E949B088091ED049091EE0402970C
:10118000C1F46091EB0485E190E00E949B086091BE
:10119000E90486E190E00E949B086091E70487E102
:1011A00090E00E949B086091E50488E190E00E9435
:1011B0009B088091ED049091EE040397C1F4609137
:1011C000EB048FE190E00E949B086091E90480E2CB
:1011D00090E00E949B086091E70481E290E00E9409
:1011E0009B086091E50482E290E00E949B08809158
:1011F000ED049091EE040497C1F46091EB0489E250
:1012000090E00E949B086091E9048AE290E00E94CD
:101210009B086091E7048BE290E00E949B0860913C
:10122000E5048CE290E00E949B086091150581E046
:1012300090E00E949B0860910B0582E090E00E9484
:101240009B086091010583E090E00E949B086091FB
:10125000F70484E090E00C949B080C94C3252F9233
:101260003F924F925F926F927F928F929F92AF9236
:10127000BF92CF92DF92EF92FF920F931F93CF9383
:10128000DF93CDB7DEB72E970FB6F894DEBF0FBE53
:10129000CDBF8BE090E00E942D09882E912C90927A
:1012A0001405809213058CE090E00E942D09A82E71
:1012B000B12CB0921205A09211058DE090E00E9431
:1012C0002D09C82ED12CD0921005C0920F058EE0AA
:1012D00090E00E942D09E82EF12CF0920E05E0928C
:1012E0000D0585E190E00E942D09082F10E0109374
:1012F0000A050093090586E190E00E942D09282F38
:1013000030E03E872D87309308052093070587E15D
:1013100090E00E942D09682E712C70920605609253
:10132000050588E190E00E942D09482E512C50922D
:101330000405409203058FE190E00E942D09282EBC
:10134000312C309200052092FF0480E290E00E9450
:101350002D09282F30E03A8329833093FE0420930F
:10136000FD0481E290E00E942D09282F30E03C83AB
:101370002B833093FC042093FB0482E290E00E94D4
:101380002D09282F30E03E832D833093FA042093DB
:10139000F90489E290E00E942D09282F30E0388777
:1013A0002F833093F6042093F5048AE290E00E94A4
:1013B0002D09282F30E03A8729873093F4042093B1
:1013C000F3048BE290E00E942D09282F30E03C8747
:1013D0002B873093F2042093F1048CE290E00E947A
:1013E0002D0990E09093F0048093EF042091ED0498
:1013F0003091EE042130310509F04DC09092EC049B
:101400008092EB04B092EA04A092E904D092E8043E
:10141000C092E704F092E604E092E50481E090E0F7
:101420000E942D0990E0909316058093150582E0A7
:1014300090E00E942D0990E090930C0580930B059D
:1014400083E090E00E942D0990E090930205809344
:10145000010584E090E00E942D0990E09093F8044B
:101460008093F7042E960FB6F894DEBF0FBECDBF63
:10147000DF91CF911F910F91FF90EF90DF90CF9070
:10148000BF90AF909F908F907F906F905F904F90A4
:101490003F902F9008952230310599F41093EC0479
:1014A0000093EB048D859E859093EA048093E90474
:1014B0007092E8046092E7045092E6044092E504DA
:1014C000ADCF23303105B9F43092EC042092EB0417
:1014D00029813A813093EA042093E9048B819C812D
:1014E0009093E8048093E7042D813E813093E604D5
:1014F0002093E50493CF2430310509F08FCF2F815D
:1015000038853093EC042093EB0429853A85309399
:10151000EA042093E9042B853C853093E80420936A
:10152000E7049093E6048093E50478CF2F923F92EE
:101530004F925F926F927F928F929F92AF92BF92E3
:10154000CF92DF92EF92FF920F931F93CF93DF938F
:1015500000D000D000D0CDB7DEB787EE95E09093F5
:101560003D0580933C058091E3059091E4059093BF
:101570003F0580933E058091B10690E09093410530
:10158000809340058091DF05833011F00C947F1328
:101590008091E9059091EA05875891098E3591056A
:1015A00008F05BC08091E3059091E405049721F574
:1015B0008091EB059091EC0580974797E8F4809136
:1015C000ED059091EE0509970997B0F410923B054F
:1015D00010923A058FEF9FEFDC01809334059093D2
:1015E0003505A0933605B093370583E090E09093DE
:1015F000310580933005B4C18091E3059091E405F5
:101600008434910550F18091EB059091EC05815463
:1016100091098F9710F530E020E080E090E0DC0148
:10162000F901E351FA4F4081518149505109493044
:10163000510598F4F901E151FA4F40815181475128
:1016400051094231510508F4BBC0408151814650D7
:1016500051094730510508F4C5C08091E3059091C8
:10166000E405809709F4C3C08091E3059091E405F7
:101670008036910509F044C023E030E03E832D839D
:101680008091E9059091EA0503970597C8F5809147
:10169000EB059091EC054997439738F08091EB0565
:1016A0009091EC050A97099758F581E090E000E0E9
:1016B00010E09801B12CA12C66246394712CFC01DC
:1016C000EE0FFF1FE951FA4FC12CD12C760170E0CB
:1016D00060E040815181435051094530510580F40B
:1016E00042815381495151094331510508F484C065
:1016F000428153814A5051094930510508F48BC049
:101700008091E3059091E405809798F180912506FA
:10171000909126060397059760F580912306909196
:1017200024060897099728F52091E7053091E805E8
:10173000A2E3B0E00E944D266135734C810591050E
:101740000CF471C130E020E090E080E0F901E55E4A
:10175000F94F40815181485151094331510508F4F5
:10176000CEC040815181485051094930510508F49B
:1017700057C18091E3059091E4054A9708F49AC116
:101780002091E7053091E80542E3429FC001439F65
:10179000900D1124843F914008F05CC110923B05EC
:1017A00010923A058FEF9FEFDC0180933405909300
:1017B0003505A0933605B09337058BE090E017CF41
:1017C000880F991FAA1FBB1F81602C5F3F4F2038D5
:1017D000310509F025CF20E230E030933B0520931E
:1017E0003A05FBCE880F991FAA1FBB1FEECF41E021
:1017F00050E05E834D8344CF1301062E02C0220CBD
:10180000331C0A94E2F7032C000C44085508C20C60
:10181000D31CE41CF51C02966F5F7F4F3496653035
:10182000710509F056CFDC01AA0FBB1FA951BA4FB1
:1018300040E050E0BA01912C812CED91FC91119780
:101840003397359708F05CCF1296ED91FC91139782
:101850007997739708F443C01296ED91FC91139712
:101860003A97399708F04CCF2C01E2E04E0E511C0C
:10187000FFEF8F1A9F0A1496E8E08E16910469F51F
:101880000896011511052105310531F04017510762
:101890006207730709F034CF8A019B010095FFEFBF
:1018A000AF1ABF0AAD81BE81AA15BB0509F007CFEB
:1018B0008FE090E090933B0580933A054093340588
:1018C000509335056093360570933705D0923305F4
:1018D000C09232058EE090E08ACEC201AECF1301F5
:1018E000082C02C0220C331C0A94E2F7032C000CD3
:1018F00044085508420D531D641D751DB5CF880F52
:10190000991F8160245031092C3CEFEF3E0709F00C
:101910001DCF2DE030E030933B0520933A059C012C
:10192000207233272150310930933305209332053B
:1019300025E0969587952A95E1F7B0E0A0E08093A1
:10194000340590933505A0933605B09337058FE0A5
:1019500090E0909331058093300581E08093000101
:10196000C0903405D0903505E0903605F0903705ED
:101970002AE0B701A60182E495E00E945A0769E4D3
:1019800071E082E495E00E944B0760E080E00E94F5
:1019900036072AE0B701A6018AEC96E00E945A07B2
:1019A0009DE5C91692EAD9069FEFE906F10409F40C
:1019B0009CC608F07AC6BDE9CB16B2E6DB06BFEFDF
:1019C000EB06F10411F40C942119EFE6CE16E0E9D0
:1019D000DE06EFEFEE06F10411F40C9426190E94D6
:1019E0008D066CE471E082E495E00E944B0769E4A7
:1019F00071E082E495E00E944B0760E080E00E9485
:101A0000360763E671E08AEC96E00E94D30768EE41
:101A100073E080E090E00E9422030E948D0669C678
:101A2000880F991F6FCF80910001811110C0109213
:101A30003B0510923A058FEF9FEFDC018093340550
:101A400090933505A0933605B093370543CF109298
:101A500000018FCE8091E9059091EA0585974B971B
:101A600048F5EFEDF5E082E090E040E050E0BA01AB
:101A70002091E3053091E405DC011196A217B3072C
:101A800008F002C1248535852750310927303105FA
:101A900008F0FAC026853785235131092F303105EA
:101AA00008F4E5C0268537852A50310929303105EB
:101AB00008F4E5C08091E3059091E4054A9708F4A5
:101AC00045C02091E7053091E80542E3429FC001FF
:101AD000439F900D11248032934008F45FCE809193
:101AE000E9059091EA05C597879780F58091EB0508
:101AF0009091EC05C597879748F5EDEEF5E083E00A
:101B000090E040E050E0BA012091E3053091E40517
:101B1000DC011196A217B30708F0DCC020813181E7
:101B20002C5031092B30310508F0D4C0228133818B
:101B3000255231092B31310508F4BFC02281338190
:101B40002B5031092B30310508F4BFC08091E305DB
:101B50009091E405829740F18091E9059091EA0522
:101B60000697079708F5EFEDF5E082E090E040E09A
:101B700050E0BA01DC0111962091E3053091E405B3
:101B8000A217B30708F0D2C0248535852E5131093C
:101B90002731310508F4B5C0248535852C5031092D
:101BA0002B30310508F4BCC01C821B8281E090E020
:101BB0009A8389838091E3059091E4050D9708F459
:101BC000E6C049E753E0BE016D5F7F4FCE0101964D
:101BD0000E948D00892B09F0DAC049E753E0BE016D
:101BE0006D5F7F4FCE0101960E948D00019709F035
:101BF000CEC049E753E0BE016D5F7F4FCE01019635
:101C00000E948D008C01892B09F0C1C0C12CD12C00
:101C100076012091E3053091E40589819A8182174C
:101C2000930708F0A5C049E753E0BE016D5F7F4F01
:101C3000CE0101960E948D005C0149E753E0BE0190
:101C40006D5F7F4FCE0101960E948D0031E0A3169B
:101C5000B10409F084C0892B09F099C0CC0CDD1CBB
:101C6000EE1CFF1C6894C0F80F5F1F4FD2CF440FCB
:101C7000551F661F771F416002963496F9CE440FB8
:101C8000551F661F771FF8CF0197969587959093FC
:101C90003B0580933A050C9728F410923B0510926F
:101CA0003A0508CF409334055093350560933605C7
:101CB0007093370584E090E09ACC440F551F661F5F
:101CC000771F4160029634961FCF440F551F661F41
:101CD000771FF8CF01979695879590933B05809352
:101CE0003A050C9728F410923B0510923A052ECF36
:101CF000409334055093350560933605709337054E
:101D00005CCD440F551F661F771F416026853785C0
:101D10003496235031092530310538F402962ACF04
:101D2000440F551F661F771FF1CFCD010197969580
:101D3000879590933B0580933A05409728F410923D
:101D40003B0510923A0530CF40933405509335054A
:101D500060933605709337058CE090E048CCAB2853
:101D6000B1F40197A1F4CC0CDD1CEE1CFF1C7CCF60
:101D700010933B0500933A05C0923405D092350587
:101D8000E0923605F092370581E090E030CC1C827D
:101D90001B8281E090E09A83898380913E05909137
:101DA0003F05892B09F47EC0E0913C05F0913D058B
:101DB0008281938189974E9708F074C082E090E009
:101DC0009A838983848195810B970A9708F06AC06A
:101DD00083E090E09A8389834CEB51E0BE016D5F14
:101DE0007F4FCE0101960E948D008C01892B09F056
:101DF00059C04CEB51E0BE016D5F7F4FCE010196A3
:101E00000E948D00019709F04DC0C12CD12C7601A4
:101E100020913E0530913F0589819A818217930771
:101E200008F0EAC04CEB51E0BE016D5F7F4FCE0180
:101E300001960E948D005C010330110539F14CEBD5
:101E400051E0BE016D5F7F4FCE0101960E948D0073
:101E50004C010330110561F44CEB51E0BE016D5FA4
:101E60007F4FCE0101960E948D0088169906D1F40D
:101E7000A114B10409F4B3C0AA94AB2899F4892839
:101E800089F4CC0CDD1CEE1CFF1CB3C04CEB51E004
:101E9000BE016D5F7F4FCE0101960E948D00A81696
:101EA000B90669F2E0913C05F0913D05828193818C
:101EB000C597879778F5848195814B97459750F51D
:101EC000DF0116967F0186ECE80EF11C20E030E081
:101ED00040E050E060E070E080E090E00D911C9107
:101EE00011970850110909301105A0F412960D91AF
:101EF0001C911397015111090D30110508F48BC085
:101F000012960D911C91139704501109053011057B
:101F100008F4A6C08091E3059091E405C99780F18B
:101F2000828193818E5791098835910548F5848186
:101F30009581CD978B9720F59F012A5F3F4FC12C4C
:101F4000D12C760143E050E0D9016D917C9111973D
:101F50006A5071096930710598F412966D917C91FF
:101F60001397665171096131710508F47DC01296AD
:101F70006D917C91665071096730710508F4A3C0BA
:101F80008091E3059091E405829709F0A1C08281D8
:101F900093810A97099708F09BC0A091E305B0913F
:101FA000E405A150B048AA0FBB1FAE0FBF1F8D9113
:101FB0009C910A97099708F08BC010923B051092EC
:101FC0003A058FEF9FEFDC01809334059093350540
:101FD000A0933605B093370586E090E008CB8A944D
:101FE000892809F05FCFCC0CDD1CEE1CFF1C689427
:101FF000C0F80F5F1F4F0CCF10933B0500933A05BD
:10200000C0923405D0923505E0923605F09237053E
:1020100082E090E0ECCA01E00E943627216014962D
:10202000EA16FB0609F05ACF2093340530933505A4
:10203000409336055093370500E20E9451272093C4
:1020400032053093330585E090E09093310580931D
:10205000300580E390E090933B0580933A0580CC77
:1020600001E00E943627DBCFD701C601880F991FF8
:10207000AA1FBB1F6C017D016894C0F84E5F5F4FC3
:102080002C5F3F4F4B33510509F05ECF9F012A581B
:102090003F4FD9012D913C912A503109293031050A
:1020A00008F06ECF2CE130E030933B0520933A05E9
:1020B000C0923405D0923505E0923605F09237058E
:1020C0008AE090E094CACC0CDD1CEE1CFF1CD6CF3D
:1020D000828193818E5791098835910570F58091A1
:1020E000E3059091E405819740F184819581CD9736
:1020F0008B9718F59F012A5F3F4FC12CD12C760199
:1021000043E050E0D9016D917C9111976A507109BB
:102110006930710590F412966D917C911397665118
:10212000710961317105A8F112966D917C9166502B
:1021300071096730710508F459C082819381845414
:102140009109C19708F089C08091E3059091E40559
:10215000049709F050C0848195818097479708F0D3
:102160004AC0868197810997099708F044C0109268
:102170003B0510923A058FEF9FEFDC018093340509
:1021800090933505A0933605B093370587E090E02E
:102190002ECAD701C601880F991FAA1FBB1F6C0149
:1021A0007D016894C0F84E5F5F4F2C5F3F4F433214
:1021B000510509F0A7CF9F012A5B3F4FD9012D910F
:1021C0003C912A5031092930310508F0B6CF20E181
:1021D00030E030933B0520933A05C0923405D0920D
:1021E0003505E0923605F0923705F6CECC0CDD1CB5
:1021F000EE1CFF1CD8CF8091E3059091E405843458
:10220000910558F184819581815491098F9728F522
:102210009F012A5F3F4FBF016A577F4FC12CD12CCE
:102220007601D9014D915C9111974950510949307E
:10223000510598F412964D915C91139746515109AE
:102240004131510508F4AAC012964D915C91465057
:1022500051094730510508F4C0C08091E3059091C1
:10226000E40586349105C0F1828193810C970B9728
:1022700098F5848195810997099770F586819781F2
:102280008C974F9748F58085918589974D9720F5D4
:102290009F01265F3F4FC12CD12C760145E050E0D5
:1022A000D9016D917C9111976C5071096B3071055A
:1022B00098F412966D917C9113976E517109673164
:1022C000710508F48FC012966D917C916950710967
:1022D0006930710508F4B5C08091E3059091E4057B
:1022E0008835910508F4BCC0828193818458910996
:1022F0008C35910508F0B4C0848195818154910991
:102300008F9708F0ADC08F01045C1F4F8DE190E006
:1023100030E020E04091E3055091E405445051093C
:102320008417950710F5A80142505109DA014D9123
:102330005C91485051094930510508F091C0BC01E9
:102340006F5F7F4FD8014D915C91119747505109B4
:102350004730510508F47AC04D915C9147515109BD
:102360004331510508F479C0CB01019796958795C3
:1023700090933B0580933A058A9708F471C0C90190
:10238000330FAA0BBB0B8093340590933505A093B4
:102390003605B093370589E090E029C9D701C60119
:1023A000880F991FAA1FBB1F6C017D016894C0F89C
:1023B0002C5F3F4F2617370709F033CF20E230E07C
:1023C00030933B0520933A05C0923405D0923505F1
:1023D000E0923605F0923705D9CECC0CDD1CEE1C10
:1023E000FF1CE6CFD701C601880F991FAA1FBB1F8C
:1023F0006C017D016894C0F84E5F5F4F2C5F3F4FCA
:102400004534510509F04CCF9F0126573F4FD90164
:102410002D913C912C5031092B30310508F05CCFC7
:1024200020E230E030933B0520933A05C09234051A
:10243000D0923505E0923605F092370588E090E0BD
:10244000D6C8CC0CDD1CEE1CFF1CD6CF220F331FD0
:10245000216002960C5F1F4F5DCF220F331FF9CF13
:102460008091E3059091E405809779F582819381CD
:102470000597079750F5848195810997099728F565
:102480009F012A5F3F4FBF01625C7F4FC12CD12C5F
:102490007601D9014D915C91119745505109473012
:1024A000510598F412964D915C9113974951510939
:1024B0004331510508F456C012964D915C91495034
:1024C00051094930510508F46EC08091E30590919F
:1024D000E4058436910508F484C06F01B2E0CB0EA8
:1024E000D11C20E030E040E0812C912C512C712C4B
:1024F000612CEE24E394F12C8091E3059091E405A6
:10250000B7016F5F7F4F6817790708F051C0D60198
:102510000D911C91B2E0EB0EF11CD6011296AD901C
:10252000BC90C501B8010E940E27DB0102511109C0
:102530000A0D1B1D0F30110508F053C0582D692DD1
:10254000752D872D962D01E00E943627852E962E1B
:10255000572E782E692E129708F4216054E0C50E8C
:10256000D11CCACFD701C601880F991FAA1FBB1F54
:102570006C017D016894C0F82C5F3F4F2617370728
:1025800009F087CF2EE030E030933B0520933A05E9
:10259000C0923405D0923505E0923605F0923705A9
:1025A00080E190E024C8CC0CDD1CEE1CFF1CE4CFC5
:1025B00083E190E09093310580933005F694E794A1
:1025C000F0923B05E0923A05409334058092350540
:1025D000909236055092370520933805309339058F
:1025E000BFC9C0903E05D0903F05B6E0CB16D104E0
:1025F00008F47FC0369625EC3DE94CE151E873E0E4
:10260000E72EF12CAAE0BA2E80819181DF01149788
:102610000D911C91B89E4001B99E900C1124D801D7
:1026200063E0AA0FBB1F6A95E1F78A169B0690F03C
:10263000B09EB001B19E700D1124A3E0880F991FC8
:10264000AA95E1F702E010E06817790728F001E0A9
:1026500010E002C010E000E063E971E080E091E08A
:102660000E94D925012E000C220B330BA9019801E1
:1026700026273727482759278FEFE81AF80A329676
:10268000EC14FD0409F6209334053093350540938E
:1026900036055093370580E290E090933B05809398
:1026A0003A058FEF9FEF0C94F70AFFE1CF16F0EE9B
:1026B000DF06FFEFEF06F10409F4BEC52DE1C216F7
:1026C00022EED2062FEFE206F10409F4B0C537E599
:1026D000C31638EAD3063FEFE306F10409F07FC9D9
:1026E000109204011092030104C010920C01109288
:1026F0000B011092DF051092E4051092E305809122
:10270000250590912605089709F085C060E080E0D6
:102710000E94360763E771E08AEC96E00E94D307D7
:1027200061E080E00E94360764E871E08AEC96E0A0
:102730000E94D30768EE73E080E090E00E942203DD
:1027400080912305883150F5F09021054BE34F151A
:1027500028F100911F050C3308F51AE0612F0E9443
:1027600002278295807F682F690F82E00E942904EA
:102770008F2D612F0E9402278295807F682F690F1D
:1027800081E00E942904802F612F0E9402278295F8
:10279000807F682F690F80E00E94290400911D0549
:1027A0008FEF800F8F3188F5F0901B058FEF8F0D25
:1027B0008C3058F58091190590911A05805D9740ED
:1027C000883E53E0950708F51AE0612F0E94022722
:1027D0008295807F682F690F86E00E9429048F2DE3
:1027E000612F0E9402278295807F682F690F85E004
:1027F0000E942904802F612F0E9402278295807FEA
:10280000682F690F84E00E9429040E948D061092AF
:102810002605109225058091170590911805181628
:10282000190624F410920F0110920E0120910B0151
:1028300030910C01232B01F5209172043091730427
:10284000232BD1F401E010E0109373040093720481
:10285000181619060CF0FFC40E949D081093180565
:102860000093170585E090E09093EE048093ED04CB
:1028700061E08DE00E9451028091090190910A016E
:10288000892B21F58091720490917304892BF1F4C6
:10289000809117059091180521E030E03093730482
:1028A00020937204409125055091260514161506B3
:1028B0000CF0DBC488E090E090932605809325051A
:1028C0000E948D0661E08DE00E9451020091170583
:1028D000109118050130110571F58091ED0490916A
:1028E000EE04059741F560E080E00E94360765E957
:1028F00071E08AEC96E00E94D30761E080E00E94DC
:10290000360766EA71E08AEC96E00E94D30760ED34
:1029100077E080E090E00E9422030E948D061092F2
:102920001805109217051092EE041092ED04109302
:102930000F0100930E0180910B0190910C01019702
:1029400051F48091090190910A01019721F41092AC
:102950007304109272048091030190910401892BF9
:1029600009F0C9C080911705909118058230910532
:1029700024F520912505309126052130310509F0F7
:102980007CC540912305509124054F5F5F4F5093C4
:102990002405409323052430310509F48CC42530E7
:1029A000310509F07CC520911D0530911E052F5F72
:1029B0003F4F30931E0520931D052091ED0430916B
:1029C000EE042115310509F08FC4209125053091C1
:1029D0002605232B91F48130910509F090C5909341
:1029E0001605809315058330910509F092C581E0A5
:1029F00090E09093020580930105809123059091CA
:102A00002405489724F01092240510922305809104
:102A1000210590912205CC9724F010922205109266
:102A2000210580911F0590912005CC9724F01092EC
:102A3000200510921F0580917004909171040897F1
:102A400024F0109271041092700480911D059091F1
:102A50001E05809724F010921E0510921D0580918E
:102A60001B0590911C050D9724F010921C051092E7
:102A70001B058091190590911A058F3E974034F0FF
:102A800080ED97E090931A05809319058091EB04EF
:102A90009091EC04489724F01092EC041092EB040F
:102AA0008091E9049091EA04CC9724F01092EA0412
:102AB0001092E9048091E7049091E804489724F08B
:102AC0001092E8041092E7048091E5049091E604E6
:102AD000CC9724F01092E6041092E5046091700403
:102AE0008FEF860F873018F483E00E94290461E09D
:102AF0008DE00E9451028091070190910801892B7D
:102B000009F0DAC08091170590911805823091057F
:102B100024F520912505309126052130310509F055
:102B2000CDC4409123055091240541505109509343
:102B30002405409323052430310509F407C42530CA
:102B4000310509F0CDC420911D0530911E0521509D
:102B5000310930931E0520931D052091ED0430911D
:102B6000EE042115310509F00AC4209125053091A4
:102B70002605232B81F48130910509F0EFC41092D2
:102B80001605109215058330910509F0EFC41092D7
:102B9000020510920105809123059091240597FF6D
:102BA00006C087E190E090932405809323058091EF
:102BB00021059091220597FF06C08BE390E090934A
:102BC00022058093210580911F059091200597FF94
:102BD00006C08BE390E09093200580931F058091C1
:102BE00070049091710497FF06C087E090E0909385
:102BF00071048093700480911D0590911E0597FFCC
:102C000006C08FE190E090931E0580931D05809192
:102C10001B0590911C0597FF06C08CE090E09093F7
:102C20001C0580931B058091190590911A0597FF4B
:102C300006C08EEE97E090931A0580931905809157
:102C4000EB049091EC0497FF06C087E190E090932D
:102C5000EC048093EB048091E9049091EA0497FFDF
:102C600006C08BE390E09093EA048093E90480919E
:102C7000E7049091E80497FF06C087E190E0909305
:102C8000E8048093E7048091E5049091E60497FFBF
:102C900006C08BE390E09093E6048093E504609196
:102CA00070048FEF860F873018F483E00E942904A8
:102CB00061E08DE00E94510280910101909102013A
:102CC000892B09F046C20E948D0660E971E080E020
:102CD00090E00E94220360E080E00E94360767EBEC
:102CE00071E08AEC96E00E94D30761E080E00E94E8
:102CF000360768EC71E08AEC96E00E94D30768EB37
:102D00007BE080E090E00E9422030E948D0660E953
:102D100071E080E090E00E94220360E080E00E9489
:102D2000360769ED71E08AEC96E00E94D30761E016
:102D300080E00E94360766EE71E08AEC96E00E9421
:102D4000D30768EB7BE080E090E00E9422030E94C2
:102D50008D0660E971E080E090E00E94220360E06F
:102D600080E00E94360766EF71E08AEC96E00E94F0
:102D7000D30761E080E00E94360763E072E08AECEE
:102D800096E00E94D30768EB7BE080E090E00E9431
:102D900022030E948D0660E971E080E090E00E94CD
:102DA000220360E080E00E94360764E172E08AEC72
:102DB00096E00E94D30761E080E00E94360761E25E
:102DC00072E08AEC96E00E94D30768EB7BE080E03B
:102DD00090E00E9422030E948D0660E971E080E08D
:102DE00090E00E94220360E080E00E94360761E3E9
:102DF00072E08AEC96E00E94D30761E080E00E94D6
:102E000036076EE372E08AEC96E00E94D30768EB27
:102E10007BE080E090E00E9422030E948D0660E942
:102E200071E080E090E00E94220360E080E00E9478
:102E300036076FE472E08AEC96E00E94D30761E007
:102E400080E00E9436076CE572E08AEC96E00E9412
:102E5000D30768EB7BE080E090E00E9422030E94B1
:102E60008D0660E971E080E090E00E94220360E05E
:102E700080E00E9436076DE672E08AEC96E00E94E0
:102E8000D30761E080E00E9436076AE772E08AECCF
:102E900096E00E94D30768EB7BE080E090E00E9420
:102EA00022030E948D0660E971E080E090E00E94BC
:102EB000220360E080E00E94360769E872E08AEC55
:102EC00096E00E94D30761E080E00E94360766E941
:102ED00072E08AEC96E00E94D30768EB7BE080E02A
:102EE00090E00E9422030E948D0660E971E080E07C
:102EF00090E00E94220360E080E00E94360766EACC
:102F000072E08AEC96E00E94D30761E080E00E94C4
:102F1000360763EB72E08AEC96E00E94D30768EB19
:102F20007BE080E090E00E9422030E948D0660E931
:102F300071E080E090E00E94220360E080E00E9467
:102F4000360764EC72E08AEC96E00E94D30761E0F9
:102F500080E00E94360761ED72E08AEC96E00E9404
:102F6000D30768EB7BE080E090E00E9422030E94A0
:102F70008D0660E971E080E090E00E94220360E04D
:102F800080E00E94360762EE72E08AEC96E00E94D2
:102F9000D30761E080E00E9436076FEE72E08AECB2
:102FA00096E00E94D30768EB7BE080E090E00E940F
:102FB00022030E948D0660E971E080E090E00E94AB
:102FC000220360E080E00E94360760E073E08AEC54
:102FD00096E00E94D30761E080E00E9436076DE032
:102FE00073E08AEC96E00E94D30768EB7BE080E018
:102FF00090E00E9422030E948D0660E971E080E06B
:1030000090E00E94220360E080E00E9436076EE1BB
:1030100073E08AEC96E00E94D30761E080E00E94B2
:1030200036076BE273E08AEC96E00E94D30768EB08
:103030007BE080E090E00E9422030E948D0660E920
:1030400071E080E090E00E94220360E080E00E9456
:1030500036076CE373E08AEC96E00E94D30761E0E8
:1030600080E00E94360769E473E08AEC96E00E94F3
:10307000D30768EB7BE080E090E00E9422030E948F
:103080008D0660E971E080E090E00E94220360E03C
:1030900080E00E94360769E573E08AEC96E00E94C2
:1030A000D30761E080E00E94360766E673E08AECB1
:1030B00096E00E94D30768EB7BE080E090E00E94FE
:1030C00022030E948D0660E971E080E090E00E949A
:1030D000220360E080E00E94360767E773E08AEC35
:1030E00096E00E94D30761E080E00E94360764E822
:1030F00073E08AEC96E00E94D30768EB7BE080E007
:1031000090E00E9422030E948D0660E971E080E059
:1031100090E00E94220360E080E00E94360765E9AB
:1031200073E08AEC96E00E94D30761E080E00E94A1
:10313000360762EA73E08AEC96E00E94D30768EBF8
:103140007BE080E090E00E94220361E08DE00E943D
:1031500051028091050190910601892B09F04FC021
:103160008FB7F894C0902805D0902905E0902A05E3
:10317000F0902B058FBF80916C0490916D04A0910D
:103180006E04B0916F04A7019601281B390B4A0BFE
:103190005B0BDA01C901883E9340A105B10548F1F6
:1031A00060916B0481E0682760936B0480E10E946A
:1031B000510263EB73E082E495E00E94D3078091B3
:1031C0006B0462E471E0882311F066E471E082E44C
:1031D00095E00E944B0769E471E082E495E00E946B
:1031E0004B07C0926C04D0926D04E0926E04F09292
:1031F0006F041092DF051092E4051092E30589E058
:103200000E9428028C0190936A0480936904809143
:103210000D0190916604992309F4D8C061E08111F1
:1032200001C060E08EE00E94510260E0D7C01092C1
:103230000A01109209015DCA10920801109207015B
:1032400058CA109206011092050153CA1092020149
:10325000109201014ECA8091250590912605019694
:10326000909326058093250503CB01968530910523
:103270002CF4909318058093170522CB30931805F2
:10328000209317050E949D088091ED049091EE0413
:1032900001969093EE048093ED040E942F0910CBC9
:1032A00040912105509122054F5F5F4F50932205B9
:1032B0004093210570CB40917004509171044F5F91
:1032C0005F4F50937104409370042730310509F02B
:1032D00074CB2091190530911A052F5F3F4F309321
:1032E0001A052093190569CB121613060CF085CB2D
:1032F0002091250530912605232B09F07ECB8130C6
:10330000910509F010C12091EB043091EC042F5F7E
:103310003F4F3093EC042093EB048330910509F088
:1033200010C18091E7049091E80401969093E8041D
:103330008093E70462CB40912105509122054150D2
:1033400051095093220540932105F5CB409170041B
:10335000509171044150510950937104409370048D
:103360002730310509F0F9CB2091190530911A0564
:103370002150310930931A0520931905EECB12160E
:1033800013060CF008CC2091250530912605232B3F
:1033900009F001CC8130910509F0F0C02091EB04D7
:1033A0003091EC04215031093093EC042093EB046C
:1033B0008330910509F0F0C08091E7049091E80412
:1033C00001979093E8048093E704E5CB882309F400
:1033D00028CF60E08EE00E94510261E08FE00E9401
:1033E0005102809167049091680401301105E1F564
:1033F000892B39F481E0809366041093680400936C
:10340000670481E090E090930C0180930B0190930E
:103410000401809303019093080180930701909326
:103420000A01809309019093020180930101909316
:1034300006018093050126960FB6F894DEBF0FBEF5
:10344000CDBFDF91CF911F910F91FF90EF90DF9053
:10345000CF90BF90AF909F908F907F906F905F9034
:103460004F903F902F900895019759F6109266045F
:103470001092680410926704C4CF2230310509F419
:103480000FCF2330310509F086CA40911F055091B6
:1034900020054F5F5F4F5093200540931F05263056
:1034A000310509F012CF20911B0530911C052F5FCB
:1034B0003F4F30931C0520931B057FCA22303105F6
:1034C00009F439CF2330310509F035CB40911F0580
:1034D00050912005415051095093200540931F05FC
:1034E0002630310509F03CCF20911B0530911C0599
:1034F0002150310930931C0520931B052ECB8230BF
:10350000910509F070CA21E030E030930C0520935A
:103510000B05049709F071CA81E090E09093F804DC
:103520008093F7046ACA8230910509F0F6CE2091A3
:10353000E9043091EA042F5F3F4F3093EA0420936F
:10354000E904049709F059CA8091E5049091E604D2
:1035500001969093E6048093E5044FCA823091056A
:1035600009F011CB10920C0510920B05049709F08D
:1035700012CB1092F8041092F7040DCB8230910513
:1035800009F016CF2091E9043091EA042150310965
:103590003093EA042093E904049709F0FCCA80916F
:1035A000E5049091E60401979093E6048093E50486
:1035B000F2CA1F920F920FB60F9211242F933F93CE
:1035C0008F939F93AF93BF93809128059091290586
:1035D000A0912A05B0912B053091270523E0230FF8
:1035E0002D3758F50196A11DB11D20932705809315
:1035F000280590932905A0932A05B0932B05809167
:103600002C0590912D05A0912E05B0912F050196C6
:10361000A11DB11D80932C0590932D05A0932E051F
:10362000B0932F05BF91AF919F918F913F912F91B3
:103630000F900FBE0F901F90189526E8230F02964B
:10364000A11DB11DD2CF1F920F920FB60F92112460
:103650002F933F934F935F936F937F938F939F939A
:10366000AF93BF93EF93FF9382E495E00E945C01D8
:10367000FF91EF91BF91AF919F918F917F916F914A
:103680005F914F913F912F910F900FBE0F901F9020
:1036900018951F920F920FB60F9211242F938F93AC
:1036A0009F93EF93FF93E0915205F0915305808132
:1036B000E0915805F091590582FD1BC090818091E1
:1036C0005B058F5F8F7320915C05821741F0E0915D
:1036D0005B05F0E0EE5BFA4F958F80935B05FF9101
:1036E000EF919F918F912F910F900FBE0F901F9090
:1036F00018958081F4CF1F920F920FB60F9211246C
:103700002F933F934F935F936F937F938F939F93E9
:10371000AF93BF93EF93FF938091E0050E9428023F
:103720002091E5053091E6052F5F3F4F3093E60588
:103730002093E5052091E3053091E4052536310518
:1037400018F094E09093DF059091DF05911130C05F
:10375000811169C02091E5053091E60524363105D7
:1037600028F41092E6051092E5055DC01092B106AE
:103770001092E4051092E3052091E3053091E405F1
:10378000A9014F5F5F4F5093E4054093E3054091DB
:10379000E5055091E605220F331FF901E951FA4F73
:1037A000518340831092E6051092E50591E021C017
:1037B0009091DF05913001F58130A9F52091E30565
:1037C0003091E405A9014F5F5F4F5093E4054093AA
:1037D000E3054091E5055091E605220F331FF901FD
:1037E000E951FA4F518340831092E6051092E505A6
:1037F00092E09093DF0517C09091DF05923061F45D
:10380000882309F4B9CF2091E5053091E6052536E6
:10381000310548F093E0EDCF9091DF05933099F4B6
:10382000882309F49ECF9091E2059923A9F0811194
:1038300024C08091E105882371F08091E10561E069
:103840000E94510209C09091DF05943061F791E028
:103850009093B106DFCF2D9AFF91EF91BF91AF9179
:103860009F918F917F916F915F914F913F912F9198
:103870000F900FBE0F901F9018958091E10588233F
:1038800021F08091E10560E0DBCF2D98E5CF1F921C
:103890000F920FB60F9211242F933F934F935F9384
:1038A0006F937F938F939F93AF93BF93EF93FF9308
:1038B0008091B900887F803609F44AC0F0F58832DB
:1038C00009F4A5C018F5803109F499C0B8F488232B
:1038D00009F4F5C0883009F492C0FF91EF91BF91CF
:1038E000AF919F918F917F916F915F914F913F9198
:1038F0002F910F900FBE0F901F901895883109F4EB
:1039000086C0803251F78093BE0414C0803409F41D
:103910009BC040F48033B9F38833F9F68093BE043A
:1039200085ECAEC0803509F483C0883509F494C0B5
:10393000883499F60E942608D0CF883909F48AC0C5
:1039400038F5883729F050F4883611F0803729F699
:1039500083E08093BF041092BD0455C0883809F4F9
:1039600079C0803919F0803809F0B7CF8091BD0453
:10397000803208F06FC0E091BD0481E08E0F80932B
:10398000BD048091BB00F0E0E356FB4F80833BC059
:10399000803B39F0D0F4803A09F477C0883A09F0D6
:1039A0009CCF84E08093BF0410929C0410929B04EF
:1039B000F0E0E0E0099580919B0481110FC081E067
:1039C00080939B0410927B0409C0803C09F4A8CF2B
:1039D000883C09F4A5CF883B09F07FCFE0919C0497
:1039E00081E08E0F80939C04F0E0E558FB4F8081CE
:1039F0008093BB0090919C0480919B0429C080918E
:103A0000E4048093BB0085EC8093BC0066CF90916A
:103A1000E3048091E204981758F5E091E30481E013
:103A20008E0F8093E304F0E0EE53FB4F8081E9CFEB
:103A3000E091E30481E08E0F8093E3048091BB006A
:103A4000F0E0EE53FB4F80839091E3048091E20419
:103A50009817C8F285E8D8CFE091E30481E08E0F93
:103A60008093E3048091BB00F0E0EE53FB4F808332
:103A70008091C10481115ECF81E08093C00484EA0B
:103A80008093BC001092BF0428CF85EC8093BC00CB
:103A90001092BF048091BD04803230F4E091BD04E7
:103AA000F0E0E356FB4F10826091BD0470E08DE9B9
:103AB00094E0F0E0E0E009951092BD040ECF109282
:103AC000BE0438CFCF93E2E4F5E01382128288EE91
:103AD00093E0A0E0B0E084839583A683B78388E277
:103AE00091E09183808385EC90E09587848784ECD6
:103AF00090E09787868780EC90E0918B808B81ECBB
:103B000090E0938B828B82EC90E0958B848B86EC9B
:103B100090E0978B868B118E128E138E148EEAECAA
:103B2000F6E0138212828AE391E09183808382E03F
:103B300084838FEF8583C3E0C68384E0878385E039
:103B4000808786E0818787E08287138614861586C2
:103B50001686178681E00E949506EFEDF5E088E075
:103B600081831382E0ECF6E082E1818383E180834C
:103B7000E8EBF6E08EED97E09683858381E0848321
:103B80008383108211821282C783E2EBF6E01182F6
:103B90001082138212821582148262E070E087E440
:103BA00094E0CF910C94D507CF93DF93CDB7DEB7D8
:103BB00066970FB6F894DEBF0FBECDBF789484B57C
:103BC000826084BD84B5816084BD85B5826085BD19
:103BD00085B5816085BD80916E00816080936E00A7
:103BE0001092810080918100826080938100809199
:103BF000810081608093810080918000816080934A
:103C000080008091B10084608093B1008091B00009
:103C100081608093B00080917A00846080937A0004
:103C200080917A00826080937A0080917A0081602E
:103C300080937A0080917A00806880937A00109255
:103C4000C1008091C106823109F015C68091C0067D
:103C5000833109F010C681E08093C90661E082E1FA
:103C60000E94510261E083E10E9451028091B900FB
:103C70008E7F8093B9008091B9008D7F8093B900C9
:103C80008CE08093B80085E08093BC00F89482E0DB
:103C90008093B0008093B10094E69093B3001092AB
:103CA000B2008093700078941092DF051092E405C2
:103CB0001092E3058091E00560E00E947F0261E0E0
:103CC0008EE00E947F0261E08FE00E947F0260E050
:103CD00089E00E947F0261E080E10E947F0261E052
:103CE0008DE00E947F0282E00E94950660E080E005
:103CF0000E94360760EC73E08AEC96E00E94D307DE
:103D000061E080E00E94360761ED73E08AEC96E0A6
:103D10000E94D30768E57BE180E090E00E942203E7
:103D20000E948D0660E080E00E94360761EE73E03D
:103D30008AEC96E00E94D30761E080E00E9436079B
:103D400062EF73E08AEC96E00E94D30768E57BE1BE
:103D500080E090E00E9422030E948D0682E390E0C2
:103D60000E942D098823E1F181E090E09093EE0418
:103D70008093ED040E949D0864E170E080E090E093
:103D80000E94220382E090E09093EE048093ED0481
:103D90000E949D0864E170E080E090E00E942203B0
:103DA00083E090E09093EE048093ED040E949D08E0
:103DB00064E170E080E090E00E94220384E090E003
:103DC0009093EE048093ED040E949D0864E170E0FE
:103DD00080E090E00E9422031092EE041092ED0425
:103DE00060E082E390E00E949B080E942F090AE0B5
:103DF00010E024E6222E312C0E94F3042093B80612
:103E00003093B9064093BA065093BB066093BC0644
:103E10007093BD068093BE069093BF068EE0E6E1E8
:103E2000F1E0DE01119601900D928A95E1F70E9472
:103E3000F3042F87388B498B5A8B6B8B7C8B8D8B44
:103E40009E8B292F2150330BF901EE0FFF1F81E0CC
:103E500090E08C0F9D1FE80FF91F808191810097E2
:103E600009F411C5FC0101900020E9F73197BF0169
:103E7000681B790B0E94D507809125059091260536
:103E8000892B59F58091B80690E090932405809392
:103E900023058091B90690E0909322058093210537
:103EA0008091BA0690E09093200580931F05809141
:103EB000BB0690E090931E0580931D058091BC0683
:103EC00090E090931C0580931B058091BD06909116
:103ED000BE0690931A05809319058091170590915D
:103EE0001805892B09F03BC160E080E00E9436078D
:103EF0008091230590912405B8010E942227CB01CF
:103F0000B8010E9422270E94A60780912305909164
:103F10002405B8010E9422270E94A60762E274E0ED
:103F20008AEC96E00E94D3078091210590912205AA
:103F3000B8010E942227CB01B8010E9422270E94CB
:103F4000A6078091210590912205B8010E942227A1
:103F50000E94A60762E274E08AEC96E00E94D30712
:103F600080911F0590912005B8010E942227CB0166
:103F7000B8010E9422270E94A60780911F059091F8
:103F80002005B8010E9422270E94A60763E074E082
:103F90008AEC96E00E94D30781E10E949404F82EF7
:103FA00082E10E949404682F70E086E07595679521
:103FB0008A95E1F7072E000C880B990B0E94A62426
:103FC00020E030E040E85EE30E9405254B015C0103
:103FD0006F2D70E090E080E00E94A4249B01AC0172
:103FE000C501B4010E945D266B017C014B015C019F
:103FF000AC019B010E94FD2668E074E081111BC0AA
:1040000026013701E89477F82FEF3FEF4FE75FE79E
:10401000C301B2010E94FD2681114AC42FEF3FEF78
:104020004FE75FE7C301B2010E949F2418160CF00E
:104030003FC46CE074E08AEC96E00E944B076FEDA1
:104040008AEC96E00E94450764E174E08AEC96E011
:104050000E94D30767E474E08AEC96E00E94D307DD
:1040600061E081E00E9436074091B6065091B706A4
:104070006091B2067091B3068AEC96E00E945403F8
:1040800068E474E08AEC96E00E94D30780911D05F5
:1040900090911E05B8010E942227CB01B8010E9411
:1040A00022270E94A60780911D0590911E05B80148
:1040B0000E9422270E94A60766E174E08AEC96E03F
:1040C0000E94D30780911B0590911C05B8010E94A6
:1040D0002227CB01B8010E9422270E94A6078091C7
:1040E0001B0590911C05B8010E9422270E94A6077B
:1040F00066E174E08AEC96E00E94D307809119058E
:1041000090911A0568EE73E00E942227CB01B80156
:104110000E9422270E94A6078091190590911A05F6
:10412000B1010E942227CB01B8010E9422270E94E0
:10413000A6078091190590911A05B8010E942227BF
:10414000CB01B8010E9422270E94A6078091190581
:1041500090911A05B8010E9422270E94A6070E948A
:10416000960A8091250590912605892B09F0A8C013
:104170008091170590911805181619060CF0A0C02B
:104180008091ED049091EE04181619060CF098C079
:1041900060E080E00E94360768E174E08AEC96E017
:1041A0000E94D3078091ED049091EE040E94A6072F
:1041B0006EE174E08AEC96E00E94D30760E08BE049
:1041C0000E9436078091EB049091EC04B8010E94A4
:1041D0002227CB01B8010E9422270E94A6078091C6
:1041E000EB049091EC04B8010E9422270E94A607DC
:1041F00062E274E08AEC96E00E94D3078091E904C1
:104200009091EA04B8010E942227CB01B8010E94D4
:1042100022270E94A6078091E9049091EA04B80140
:104220000E9422270E94A60761E080E00E943607D4
:1042300068E174E08AEC96E00E94D3078091ED0477
:104240009091EE040E94A60764E274E08AEC96E086
:104250000E94D30761E08BE00E9436078091E7045B
:104260009091E804B8010E942227CB01B8010E9476
:1042700022270E94A6078091E7049091E804B801E4
:104280000E9422270E94A60762E274E08AEC96E070
:104290000E94D3078091E5049091E604B8010E9442
:1042A0002227CB01B8010E9422270E94A6078091F5
:1042B000E5049091E604B8010E9422270E94A60717
:1042C0008091250590912605892B09F055C0809194
:1042D000170590911805181619060CF04DC080911D
:1042E000ED049091EE04892B09F046C060E080E077
:1042F0000E9436076AE274E08AEC96E00E94D307D7
:1043000061E080E00E9436078091150590911605C6
:104310006CE374E0019711F061E474E08AEC96E0DC
:104320000E94D30780910B0590910C056BE374E01C
:10433000019711F060E474E08AEC96E00E94D307E4
:1043400080910105909102056BE374E0019711F0F3
:1043500060E474E08AEC96E00E94D3078091F70451
:104360009091F8046BE374E0019711F060E474E05D
:104370008AEC96E00E94D30764E670E080E090E06B
:104380000E9422038091170590911805029784F4EA
:104390008091250590912605019751F460E080E019
:1043A0000E94360767E474E08AEC96E00E94D30727
:1043B0008091170590911805029784F48091250546
:1043C00090912605029751F460E083E00E94360741
:1043D00067E474E08AEC96E00E94D30780911705A9
:1043E00090911805029784F48091250590912605F7
:1043F000039751F460E086E00E94360767E474E0BA
:104400008AEC96E00E94D3078091170590911805D9
:10441000029784F48091250590912605049751F424
:1044200061E081E00E94360766E474E08AEC96E081
:104430000E94D3078091170590911805029784F484
:104440008091250590912605059751F461E085E05E
:104450000E94360767E474E08AEC96E00E94D30776
:104460008091170590911805029784F48091250595
:1044700090912605069751F461E088E00E94360786
:1044800067E474E08AEC96E00E94D30780911705F8
:1044900090911805029784F4809125059091260546
:1044A000079751F461E08BE00E94360765E474E001
:1044B0008AEC96E00E94D30780912505909126050D
:1044C000892BB1F48091170590911805019781F41B
:1044D0008091ED049091EE04892B51F461E082E02B
:1044E0000E94360767E474E08AEC96E00E94D307E6
:1044F0008091250590912605892BB1F480911705AF
:1045000090911805029781F48091ED049091EE044A
:10451000892B51F461E086E00E94360767E474E07D
:104520008AEC96E00E94D30780912505909126059C
:10453000892BB1F48091170590911805039781F4A8
:104540008091ED049091EE04892B51F461E08AE0B2
:104550000E94360767E474E08AEC96E00E94D30775
:104560008091250590912605892BB1F4809117053E
:1045700090911805049781F48091ED049091EE04D8
:10458000892B51F461E08DE00E94360767E474E006
:104590008AEC96E00E94D30780912505909126052C
:1045A000892BB9F48091170590911805019789F42A
:1045B0008091ED049091EE041816190654F460E011
:1045C0008BE00E94360767E474E08AEC96E00E9474
:1045D000D3078091250590912605892BB9F4809108
:1045E000170590911805029789F48091ED04909138
:1045F000EE041816190654F460E08EE00E943607A7
:1046000067E474E08AEC96E00E94D3078091250568
:1046100090912605892BB9F4809117059091180582
:10462000039789F48091ED049091EE041816190611
:1046300054F461E08BE00E94360767E474E08AEC92
:1046400096E00E94D3078091250590912605892B3D
:10465000B9F48091170590911805049789F4809119
:10466000ED049091EE041816190654F461E08EE002
:104670000E94360767E474E08AEC96E00E94D30754
:104680008091150590911605019799F580910E017D
:1046900090910F01019769F5809123059091240570
:1046A00020911305309114058217930769F4409106
:1046B00021055091220520911105309112054217D4
:1046C000530711F410920D0120910F053091100540
:1046D0008217930771F42091210530912205809172
:1046E0000D0590910E052817390719F481E0809384
:1046F0000D0180910B0590910C05019799F5809122
:104700000E0190910F01019769F580912305909119
:1047100024052091090530910A058217930769F451
:1047200040912105509122052091070530910805FF
:104730004217530711F410920D0120910505309195
:1047400006058217930771F4209121053091220507
:1047500080910305909104052817390719F481E029
:1047600080930D018091010590910205019799F5C3
:1047700080910E0190910F01019769F580912305B9
:10478000909124052091FF04309100058217930732
:1047900069F440912105509122052091FD0430914A
:1047A000FE044217530711F410920D012091FB04EF
:1047B0003091FC048217930771F420912105309108
:1047C00022058091F9049091FA042817390719F409
:1047D00081E080930D018091F7049091F804019796
:1047E00099F580910E0190910F01019769F58091E3
:1047F0002305909124052091F5043091F604821749
:10480000930769F440912105509122052091F3040A
:104810003091F4044217530711F410920D012091C6
:10482000F1043091F2048217930771F4209121056D
:10483000309122058091EF049091F00428173907F8
:1048400019F481E080930D0164E670E080E090E06F
:104850000E94220360E08DE00E94510220E030E0DF
:10486000232B09F4C9CA0E94EB01882309F4C4CAA6
:104870000E940000C1CA1092C90661E08091C00682
:104880000E947F0203CA8091B2069091B3060097FE
:1048900011F00E940E281092B3061092B2061092E8
:1048A000B7061092B6061092B5061092B406E4CA86
:1048B0002FEF3FEF4FE75FE4C701B6010E94F826F4
:1048C00018161CF460E174E0B6CB2FEF3FEF4FE712
:1048D0005FECC701B6010E949F2487FDF3CF20E063
:1048E00030E0A901C701B6010E949F2487FF0CC0D8
:1048F00041E06DE28AEC96E00E94340646015701E1
:10490000B7FAB094B7F8B09420E030E040E05FE34D
:10491000C501B4010E945D260E94C926AB01BC01FD
:104920002AE08AEC96E00E945A0789CB8091B20671
:104930009091B306009711F00C940E2808950E94F0
:10494000E12408F481E00895E89409C097FB3EF45F
:1049500090958095709561957F4F8F4F9F4F9923CC
:10496000A9F0F92F96E9BB279395F695879577954A
:104970006795B795F111F8CFFAF4BB0F11F460FF0A
:104980001BC06F5F7F4F8F4F9F4F16C0882311F062
:1049900096E911C0772321F09EE8872F762F05C076
:1049A000662371F096E8862F70E060E02AF09A9511
:1049B000660F771F881FDAF7880F9695879597F906
:1049C0000895990F0008550FAA0BE0E8FEEF1616A0
:1049D0001706E807F907C0F012161306E407F507F3
:1049E00098F0621B730B840B950B39F40A2661F067
:1049F000232B242B252B21F408950A2609F4A1400A
:104A0000A6958FEF811D811D08950E9418250C9495
:104A100089250E947B2538F00E94822520F095236D
:104A200011F00C9472250C94782511240C94BD255A
:104A30000E949A2570F3959FC1F3950F50E0551F82
:104A4000629FF001729FBB27F00DB11D639FAA27E3
:104A5000F00DB11DAA1F649F6627B00DA11D661F32
:104A6000829F2227B00DA11D621F739FB00DA11D53
:104A7000621F839FA00D611D221F749F3327A00D0D
:104A8000611D231F849F600D211D822F762F6A2FA9
:104A900011249F5750409AF0F1F088234AF0EE0F0E
:104AA000FF1FBB1F661F771F881F91505040A9F73B
:104AB0009E3F510580F00C9472250C94BD255F3FFC
:104AC000E4F3983ED4F3869577956795B795F79577
:104AD000E7959F5FC1F7FE2B880F911D96958795EF
:104AE00097F9089597F99F6780E870E060E008956E
:104AF0009FEF80EC089500240A94161617061806F6
:104B00000906089500240A941216130614060506D1
:104B10000895092E0394000C11F4882352F0BB0F62
:104B200040F4BF2B11F460FF04C06F5F7F4F8F4FC5
:104B30009F4F089557FD9058440F551F59F05F3F00
:104B400071F04795880F97FB991F61F09F3F79F0AF
:104B500087950895121613061406551FF2CF469531
:104B6000F1DF08C0161617061806991FF1CF8695B3
:104B70007105610508940895E894BB276627772797
:104B8000CB0197F90895F999FECF92BD81BDF89AAE
:104B9000992780B50895262FF999FECF1FBA92BDA7
:104BA00081BD20BD0FB6F894FA9AF99A0FBE01960E
:104BB0000895DB018F939F930E940B26BF91AF91C5
:104BC000A29F800D911DA39F900DB29F900D112467
:104BD0000895A1E21A2EAA1BBB1BFD010DC0AA1F3E
:104BE000BB1FEE1FFF1FA217B307E407F50720F056
:104BF000A21BB30BE40BF50B661F771F881F991FD1
:104C00001A9469F760957095809590959B01AC0119
:104C1000BD01CF0108950E944D26A59F900DB49F20
:104C2000900DA49F800D911D112408952F923F9205
:104C30004F925F926F927F928F929F92AF92BF92AC
:104C4000CF92DF92EF92FF920F931F93CF93DF9358
:104C5000CDB7DEB7CA1BDB0B0FB6F894DEBF0FBEB5
:104C6000CDBF09942A88398848885F846E847D8402
:104C70008C849B84AA84B984C884DF80EE80FD8004
:104C80000C811B81AA81B981CE0FD11D0FB6F8947A
:104C9000DEBF0FBECDBFED010895A29FB001B39F4F
:104CA000C001A39F700D811D1124911DB29F700D35
:104CB000811D1124911D08955058BB27AA270E94D9
:104CC00074260C9489250E947B2538F00E94822549
:104CD00020F039F49F3F19F426F40C9478250EF453
:104CE000E095E7FB0C947225E92F0E949A2558F372
:104CF000BA17620773078407950720F079F4A6F5C1
:104D00000C94BC250EF4E0950B2EBA2FA02D0B01B0
:104D1000B90190010C01CA01A0011124FF27591B00
:104D200099F0593F50F4503E68F11A16F040A22F06
:104D3000232F342F4427585FF3CF46953795279577
:104D4000A795F0405395C9F77EF41F16BA0B620B76
:104D5000730B840BBAF09150A1F0FF0FBB1F661FBD
:104D6000771F881FC2F70EC0BA0F621F731F841F00
:104D700048F4879577956795B795F7959E3F08F026
:104D8000B0CF9395880F08F09927EE0F97958795E8
:104D900008950E94A22588F09F5798F0B92F99276F
:104DA000B751B0F0E1F0660F771F881F991F1AF016
:104DB000BA95C9F714C0B13091F00E94BC25B1E09A
:104DC00008950C94BC25672F782F8827B85F39F099
:104DD000B93FCCF3869577956795B395D9F73EF4AF
:104DE00090958095709561957F4F8F4F9F4F089557
:104DF0000E94E12408F48FEF08950E94E124880BBB
:104E0000990B0895991B79E004C0991F961708F033
:104E1000961B881F7A95C9F780950895AA1BBB1B1E
:104E200051E107C0AA1FBB1FA617B70710F0A61BAA
:104E3000B70B881F991F5A95A9F780959095BC01CB
:104E4000CD01089597FB072E16F4009407D077FD47
:104E500009D00E940E2707FC05D03EF4909581955D
:104E60009F4F0895709561957F4F0895002E0830EB
:104E700090F0982F872F762F652F542F432F322FA6
:104E800022270850F4CF220F331F441F551F661FDF
:104E9000771F881F991F0A95B2F7002D089597FD77
:104EA0001094002E083098F00850232F342F452FEF
:104EB000562F672F782F892F912DF4CF1594979522
:104EC00087957795679557954795379527950A95CF
:104ED000AAF71124002D0895EE0FFF1F0590F491FD
:104EE000E02D09940F931F93CF93DF9382309105A8
:104EF00010F482E090E0E091E406F091E50630E005
:104F000020E0B0E0A0E0309799F42115310509F4D4
:104F10004AC0281B390B24303105D8F58A819B8182
:104F20006115710589F1FB0193838283FE0111C034
:104F3000408151810281138148175907E0F04817D9
:104F4000590799F4109761F012960C9312971396E3
:104F50001C933296CF01DF91CF911F910F9108954D
:104F60000093E4061093E506F4CF2115310551F0C6
:104F70004217530738F0A901DB019A01BD01DF0197
:104F8000F801C1CFEF01F9CF9093E5068093E406D5
:104F9000CDCFFE01E20FF31F81939193225031098F
:104FA00039832883D7CF2091E2063091E306232B63
:104FB00041F420911201309113013093E3062093C4
:104FC000E20620911001309111012115310541F4C3
:104FD0002DB73EB74091140150911501241B350B9C
:104FE000E091E206F091E306E217F307A0F42E1B2E
:104FF0003F0B2817390778F0AC014E5F5F4F24173D
:10500000350748F04E0F5F1F5093E3064093E206CA
:10501000819391939FCFF0E0E0E09CCFCF93DF931B
:105020000097E9F0FC01329713821282A091E40606
:10503000B091E506ED0130E020E01097A1F4208169
:105040003181820F931F2091E2063091E3062817E9
:10505000390709F061C0F093E306E093E206DF91BF
:10506000CF910895EA01CE17DF07E8F54A815B8109
:105070009E0141155105B1F7E901FB83EA8349918E
:105080005991C40FD51FEC17FD0761F48081918100
:105090000296840F951FE901998388838281938109
:1050A0009B838A83F0E0E0E012968D919C911397A8
:1050B0000097B9F52D913C911197CD010296820F81
:1050C000931F2091E2063091E3062817390739F63D
:1050D000309751F51092E5061092E406B093E3067E
:1050E000A093E206BCCFD383C28340815181840F59
:1050F000951FC817D90761F44E5F5F4F888199816A
:10510000480F591F518340838A819B8193838283F7
:105110002115310509F0B0CFF093E506E093E406E0
:105120009ECFFD01DC01C0CF13821282D7CFB0E049
:10513000A0E0EDE9F8E20C9418268C01009751F4F8
:10514000CB010E9472278C01C801CDB7DEB7E0E128
:105150000C943426FC01E60FF71F9C012250310904
:10516000E217F30708F49DC0D901CD91DC911197A6
:10517000C617D70798F0C530D10530F3CE01049794
:105180008617970708F3C61BD70B2297C193D193B5
:105190006D937C93CF010E940E28D6CF5B01AC1A91
:1051A000BD0A4C018C0E9D1EA091E406B091E5064F
:1051B000512C412CF12CE12C109731F58091E20615
:1051C0009091E3068815990509F05CC046165706CC
:1051D00008F058C08091100190911101009741F49E
:1051E0008DB79EB74091140150911501841B950B0A
:1051F000E817F90708F055C0F093E306E093E206DC
:10520000F90171836083A0CF8D919C9111971296C3
:105210006C90129713967C901397A815B90559F5C1
:105220006C0142E0C40ED11CCA14DB0420F1AC01B5
:105230004A195B09DA011296159780F0628273822F
:1052400051834083D9016D937C93E114F10471F093
:10525000D7011396FC93EE93129776CF22968C0F7C
:105260009D1FF90191838083F301EFCFF093E50651
:10527000E093E40669CF4816590608F42C017D0135
:10528000D3019ACFCB010E9472277C01009749F08D
:10529000AE01B8010E945429C8010E940E2887015E
:1052A00053CF10E000E050CFFB01DC0102C00190C1
:1052B0000D9241505040D8F70895FB01DC01019058
:1052C0000D920020E1F7089510E0C2E6D0E004C09E
:1052D000FE010E946C272196C336D107C9F7F894C6
:0252E000FFCFFE
:1052E20001010001000100010001000100010100B3
:1052F2000000E60680004A044E04520456045A0492
:105302005E046204000000007E0154031F01CB0111
:1053120050012E0142010000000045075403D3034F
:1053220081034F4646004F4E000D0A00556E6B6ECC
:105332006F776E20627574746F6E2070726573730E
:1053420065640020496E76616C696420496E7075EF
:105352007420005365742054696D652046696E6936
:105362007368200053657420446174652046696E39
:1053720069736820005365742054696D6572204614
:10538200696E697368002D454550524F4D20557026
:1053920064617465642D00546869732050726F6A89
:1053A2006563742049732000436F6E64756374658E
:1053B200642042792E2E2E20002031372F343836A9
:1053C2003639552F320020414B4F57452042415329
:1053D2004849525520002031362F34323336395560
:1053E2002F3200204942524148494D2059414B55E4
:1053F200425520002031362F3433373932552F327F
:105402000020415557414C5520484152554E4120AC
:10541200002031372F3437303333552F32004F438A
:1054220048454D45204B454E4E455448204D0020A1
:1054320031362F3435373237552F3200424142410F
:1054420020414244554C415A45455A2000203138AA
:105452002F3532343035442F3200204652494441F0
:1054620059204F4D414C4520002031372F343739D8
:105472003530552F32005955535546204142445537
:105482004C4C414849002031372F34383833345599
:105492002F32004D5548414D4D4144204D55534109
:1054A200205341002031372F3437333931552F32D1
:1054B200004144414D5520454C4953484120494EF5
:1054C20055002031372F3439393236552F32004BBF
:1054D2004154564F4E47204E414E54494D204600AE
:1054E2002031372F3439393937552F32004A4F4E50
:1054F20047424F2053484F4C41204A4552002031E9
:10550200372F3530363737442F320042414C412055
:105512004942524148494D20425542002031372FDD
:105522003438363830552F3200414244554C4C41C4
:105532004849204B41424952002031372F343633FB
:105542003434552F32005955535546204D55484154
:105552004D4D4544204C0053555045525649534FEA
:1055620052203100454E47522E2049542042414C90
:10557200414D49200053555045525649534F5220F0
:105582003200454E47522E20592E2053414C452081
:105592002020004C4544206973206E6F773A20002A
:1055A20020202057454C434F4D4520544F2020206A
:1055B2000020204154425520424155434849202071
:1055C20000202020464143554C5459204F4620206C
:1055D2002000454E47494E454552494E47205445C5
:1055E2004348002020543A006E616E00696E6600E6
:1055F2006F76660043002F0054696D657200204F7C
:105602006E203A00204F66663A0020543120205422
:105612003220205433202054342000202020410006
:10562200202020440020202020004D6F6E00547561
:1056320065005765640054687500467269005361DD
:06564200740053756E00B8
:00000001FF
